:080000000C9451000C947E00E9
:100008000C9400000C9400000C9400000C94000068
:100018000C9400000C9400000C9400000C94ED006B
:100028000C9400000C9400000C9400000C94000048
:100038000C9400000C9400000C9400000C94000038
:100048000C9400000C9400000C9400001027E803A6
:1000580064000A0001000010000110000100000007
:1000680000003100300080C001002D4E414E004993
:100078004E4600000100020066000200040068000D
:10008800020060016A00020062016C00020078014F
:100098006E0001007C0170000000F894EE27ECBBB4
:1000A800F1E0FBBFEBBFE5BF8DE0A2E0BB27ED931E
:1000B8008A95E9F780E094E0A0E6ED930197E9F7E7
:1000C800ECE7F0E085919591009761F0A591B591E5
:1000D80005901590BF01F00105900D920197E1F789
:1000E800FB01F0CFEFE5EDBFE4E0EEBFC0E6D1E005
:1000F8000C94F2000A921A92FA926A937A938A936B
:100108009A93AA93BA93EA93FA93EFB7EA9320FEE5
:100118004CC0E2B7A4E7B1E0FF27662777270E9423
:10012800A9030E94F9040E94D7020E940D05E2E08B
:10013800EA93A4E6B1E00E94B5010E94D702A0E0CC
:10014800B0E08CE093E40E94C60411F008F00CC003
:100158000E94E002E0E0F0E061E173E40E94C6047E
:1001680011F008F001C001C003C0A0E6B1E01AC058
:100178000E94D702A0E0B0E082E393E40E94C604A4
:1001880011F008F00CC00E94E002E0E0F0E066E345
:1001980073E40E94C60411F008F001C001C003C056
:1001A800A2E6B1E09FD0E89405C020FC04C0E0E0DE
:1001B800E2BF689420F8E991EFBFF991E991B9910C
:1001C800A9919991899179916991F99019900990DA
:1001D8001895EA93E3E8E2BFE9911895E0E0EABBF5
:1001E800EBBBE7BBE8BBE4BBE5BBE1BBE2BBE3E0E1
:1001F800E3BFE3E8E2BFE0E0ECBFEFBDEEBDEDBD7D
:10020800ECBDE7BDE6BDEBBDEABDE9BDE8BDE2BDBD
:10021800E5BDE4BDE3BDE1E0E9BFEBB7E064EBBFFA
:10022800E1E0E5BFE0E0E4BFE0E4EABFE0E0EAB92E
:10023800E0E8E8B9E0E0E0BFE6B9EDB9E6BFA0E183
:1002480062D07894FFCFFFCFAA93EBB3EF70AE2FB5
:10025800E881E07FEA2BEBBB8DE08A95F1F7DA9A2B
:100268008DE08A95F1F7DA988DE08A95F1F777C0F5
:10027800AA93A881E9DFE881E295E883A881E4DF11
:1002880085E88A95F1F76BC0AA93E881F0E0E85811
:10029800FE4FE081A981AE0FEBDF7980688022965E
:1002A8000895A2E00E94E902ACE0E2DFA1E00E942A
:1002B800E902E0E06E2E7E2E0895AA93A881AA3066
:1002C80011F0791448F0E0E0EA936394A62DDCDF9E
:1002D800A881AA3009F443C07394D89AA881C8DFCA
:1002E800D8983DC0BA93AA931A93A981BA81ED917F
:1002F800A983BA831E2FE03019F0A12FDEDFF5CFD6
:10030800188123960895AA93EAB3E06FEABBD29ABC
:10031800D09AD19ADA98D898D9989880E881E058F4
:10032800E0937A01E881E054E0937B01A4E1B0E036
:100338000E9433030E94EF020E94EF020E94EF0224
:10034800A0E282DF88EC90E00197F1F7A8E290DF65
:10035800A4E08EDFA5E88CDFA6E08ADFA2DF219685
:100368000895BA93AA932497E0E0E883E983EA839F
:10037800EFE3EB831A930A93EB85FC85EF3FAFEF2E
:10038800FA0739F40E94F702A2E7B0E00E94CA0215
:10039800B1C0EF3FAFE7FA0739F40E94F702A3E7CD
:1003A800B0E00E94CA02A6C0AC85AA2362F4E9851F
:1003B800FA856B857C850E943D030E94FC020E94A1
:1003C8000103EDE2EC93A885A73010F0E6E0E8879A
:1003D8001885E12F1150E03039F00E9408030E947F
:1003E8000D030E941403F5CF0E9419030E94E30332
:1003F8000E94FC0210E0E0E0F0E060E87FE30E9489
:1004080014030E9419030E94C60488F00E9408037E
:100418000E9422030E9414031F5F173238F00E94C3
:10042800F702A7E7B0E00E94CA0264C0EACF103022
:1004380029F40E940103E0E3EC932FC0E12F11504F
:10044800E03059F10E9408030E940D03A0E0B0E0DB
:1004580080E09FE30E94E303DF01CB010E94B30227
:100468000E9414030E9419030E9481040E947003D1
:100478000E2F0E940103E02FE05DEC93E02FF0E0E7
:100488000E9408030E94F4040E94A9030E943304F6
:100498000E9429030E942E03D1CFE885E03031F174
:1004A8000E940103EEE2EC93E885E150E887EF5FF4
:1004B800E9F00E9429030E9422030E94FC02E985B8
:1004C800FA856B857C850E9470030E2F0E940103BC
:1004D800E02FE05DEC93E02FF0E00E9429030E94FA
:1004E800F4040E94A9030E942E03DECFAE81BF81CF
:1004F800E0E0EC93198108812D9608950E94120579
:100508007B816A81F981E88177FB770F67FD7160EC
:10051800972F9E5781F078F0983190F4AA27BB273F
:10052800882708948795B795A7959A95D1F7EA23D0
:10053800FB23682305C0E8947727EE27FF27662763
:100548006F77769508F4606877F9A991B9918991E0
:100558009991EA17FB076807790797FB08950E94A6
:1005680012050E9403050E9482020E94080519F4E0
:100578000E94FE0409C0E6F70E94FE04A0E0B0E075
:1005880080E89FE30E94DC0324960895BA93AA9317
:10059800E991F991A991B991CD0105900D920020A9
:1005A800E1F7FC010895E0917401F0917501609103
:1005B8007601709177010895A0917401B091750149
:1005C800809176019091770108950E943C01A3E003
:1005D800B0E00C943303A0E30E94280188EC90E07B
:1005E8000197F1F70895EE81FF81FA93EA93089550
:1005F800E987FA876B877C870895AE81BF8111965A
:10060800AE83BF8311970895AA81BB818C819D8198
:100618000895EDECFCEC6CEC7DE30E943304089546
:10062800EA83FB836C837D830895EA81FB816C8177
:100638007D81A985BA858B859C850895E0E0F0E0E9
:1006480060E271E40E9433040895A985BA858B8518
:100658009C8508950E9417050E94DC03C9CF109657
:1006680039F080ED97E00197F1F7A8951197C9F750
:10067800089530976040704009F0705808955523E8
:1006880042F4503811F4E0FF04C03196691F791F15
:100698006BF050E8572711F45F93CFC05F3F31F0FC
:1006A800660F000C57956795752F08955F93002086
:1006B8000AF0CFC0C8C050E8192E1522880F991F1C
:1006C8009527550F879550E8072E0522660F771F47
:1006D8007527550F67950895689401C0E8945F934E
:1006E800F2DF703818F07F3F08F4A7C056E1571BB7
:1006F800AAF4519558300EF4593030F0EFEFFFEF6F
:100708006FEF7FE777F91AC077275523B9F0EE0F17
:10071800FF1F661F771F5A95D1F710C077275830EB
:1007280028F0EF2FF62F672F5850F9CF552331F0C7
:1007380076956795F795E7955A95D1F700200AF4CD
:1007480041D15F910895689401C0E8943097604062
:100758007040B1F0002426F0772312F4009432D1CF
:10076800172E7EE1112032F07A95EE0FFF1F661FDB
:10077800111CF9CFEF2FF62F612D5F938ADF5F9160
:1007880008954F93AF01FD01DA01AB01BC01CA0125
:10079800402D012C142E4F910895EA0FFB1F681F5E
:1007A8000895E095F0956095EF5FFF4F6F4F0895BE
:1007B8005F9381DF903871F150E8152604C05F938C
:1007C8007ADF903839F1703821F1572F591B2BF106
:1007D80012F4D7DFFACF583118F0AA27BB27882799
:1007E800583028F0AB2FB82F88275850F9CF552309
:1007F80029F08695B795A7955A95D9F7502D512583
:1008080072F0CBDF38F46795F795E795739513F495
:1008180020C0B7DF3EDF5F910895D8F7FBCFEA1B12
:10082800FB0B680B51F010F40094BBDF662392F3C6
:10083800EE0FFF1F661F7A95CBF7EE27FF27662777
:1008480077275F910895EFEFFFEF6FE77FEF5F91F5
:100858000895EFEFFFEF6FE77FE75F9108955F93EC
:100868002ADF703851F3903841F301240894791F36
:1008780023F41CF300203AF3ECCF0F921F932F932D
:100888003F934F93112722279927689FA0018F9F95
:10089800302D410D591F6B9F300D411D591F8E9FE3
:1008A80027D0BF9F25D06A9F23D0BE9F1DD0AF9F62
:1008B8001BD0AE9F110D291F391F491F591FE32F48
:1008C800F42F652F522F4F913F912F911F910F9029
:1008D80066232AF0550FEE1FFF1F661F02C073958F
:1008E8004BF2CDDE5F910895100D211D391F02C016
:1008F800200D311D491F591F08955F93DCDE7038A4
:1009080021F411200AF49FCFA4CF903809F495CF91
:1009180001240894970B1BF4D4F30020F3CF792F0C
:100928001F932F933F934F93112411272227332787
:100938004427552790E2AE17BF078607410730F0D6
:10094800AE1BBF0B860B410B089401C08894551F42
:10095800221F331F111CAA1FBB1F881F441F9A95F3
:1009680051F7F901612D4F913F912F911F91662306
:1009780032F0550FEE1FFF1F661F7A9543F27FDE98
:100988005F91089599239AF0772342F0971748F0DA
:1009980029F4AE17BF07860720F031F098948894A1
:1009A800089598940894089518948894089577233E
:1009B800C2F7971798F3A9F7EA17FB07680788F3B0
:1009C80099F3ECCFF09560957095E195FF4F6F4FD7
:1009D8007F4F0895FE2FFF0FFF0B6F2F7F2F089576
:1009E8006F2F660F660B762F0895ED93FD936D9329
:1009F8007C930895E881F9816A817B810895A881B3
:100A0800B9818A819B810895E883F9836A837B830E
:100A180008957A936A93FA93EA9308959A938A9336
:100A2800BA93AA930895182E862F612D192E972F01
:100A3800712D1B2EBF2FF12D1A2EAE2FE12D0895EB
:00000001FF
