:060000000C9451000C9469
:100006007E000C9400000C9400000C9400000C94EC
:1000160000000C9400000C9400000C9400000C945A
:1000260000000C9400000C9400000C9400000C944A
:1000360000000C9400000C9400000C9400000C943A
:1000460000000C9400000C9400000C940000102793
:10005600E80364000A00010000100001100001001E
:100066000000000048656C6C6F0030003100010034
:100076002D4E414E00494E46000080C0040004004B
:100086006600020060017000020062017200010059
:10009600650174000200690180000000F894EE27F3
:1000A600ECBBF1E0FBBFEBBFE5BF8DE0A2E0BB27F9
:1000B600ED938A95E9F780E094E0A0E6ED93019749
:1000C600E9F7E2E8F0E085919591009761F0A59156
:1000D600B59105901590BF01F00105900D9201971D
:1000E600E1F7FB01F0CFEFE5EDBFE4E0EEBFC0E6E0
:1000F600D1E00C94C1000A921A92FA926A937A930A
:100106008A939A93AA93BA93EA93FA93EFB7EA93E8
:10011600AAE0B0E00E94B9014424552446145704CD
:10012600FCF4A4E6B1E0A40DB51DAC91A03319F41E
:10013600C09AA6E409C0A4E6B1E0A40DB51DAC9131
:10014600A13351F4C09AA4E1B0E00E94B901C0986D
:10015600A2E0B0E00E94B901F20131962F01DECF94
:10016600E991EFBFF991E991B991A9919991899195
:1001760079916991F990199009901895E0E0EABB98
:10018600EBBBE7BBE8BBE4BBE5BBE1BBE2BBE3BF64
:10019600E2BFECBFEFBDEEBDEDBDECBDE7BDE6BD1C
:1001A600EBBDEABDE9BDE8BDE2BDE5BDE4BDE3BD2D
:1001B600E9BFEBB7E064EBBFE1E0E5BFE0E0E4BF39
:1001C600E0E4EABFE0E0EAB9E0E8E8B9E0E0E0BF91
:1001D600E6B9EDB9E6BFA0E10E947D017894B89A30
:1001E600C098A098A198A298A89AA99AAA9AA2E3B8
:1001F600B0E00E94B90198990DC0A4E6B1E0A60D41
:10020600B71DE0E3EC93F30131963F01A0E6B1E0C0
:100216000E946C0199990DC0A4E6B1E0A60DB71D28
:10022600E1E3EC93F30131963F01A2E6B1E00E94CF
:100236006C01DDCFFFCFAA93EBB3EF70AE2FE88151
:10024600E07FEA2BEBBB8DE08A95F1F7DA9A8DE039
:100256008A95F1F7DA988DE08A95F1F777C0AA9337
:10026600A881E9DFE881E295E883A881E4DF85E8F3
:100276008A95F1F76BC0AA93E881F0E0E759FE4F43
:10028600E081A981AE0FEBDF9980888022960895E0
:10029600A2E00E94AB01ACE0E2DFA1E00E94AB016C
:1002A600E0E08E2E9E2E0895AA93A881AA3011F022
:1002B6009B1448F0E0E0EA938394A82DDCDFA88144
:1002C600AA3009F443C09394D89AA881C8DFD89875
:1002D6003DC0BA93AA931A93A981BA81ED91A983D5
:1002E600BA831E2FE03019F0A12FDEDFF5CF18817B
:1002F60023960895AA93EAB3E06FEABBD29AD09AFE
:10030600D19ADA98D898D998B880E881E058E093DD
:100316006B01E881E054E0936C01A4E1B0E00E9437
:10032600B9010E94B1010E94B1010E94B101A0E28F
:1003360082DF88EC90E00197F1F7A8E290DFA4E075
:100346008EDFA5E88CDFA6E08ADFA2DF219608957E
:100356000E943201A3E0B0E00C94B901A0E30E9430
:100366001E0188EC90E00197F1F70895109639F098
:1003760080ED97E00197F1F7A8951197C9F70895D1
:00000001FF
